:02000002D0002C
:1040000000400D00647D0D00000006001700050152
:084010000401DE0500000000C0
:0440180088750D009A
:1040200009480A49884208B505D0094A824202D0A7
:10403000121A03F065FA0748074A0021121A03F022
:104040006AFA014808BD00BFF4E20320D47C0D00E9
:104050005CE303205CE30320F0E7032070B502F08B
:104060002DF8074C074BE41AA40800251E46A5426C
:1040700004D056F8253098470135F8E770BD00BFE9
:10408000CC7C0D008C7C0D0000F014BB08B500F05A
:10409000A7FCBDE8084001F0D3BF01F007BD01F067
:1040A00005BD0078B0FA80F0400970470123037025
:1040B00070470000024A13780133DBB21370704777
:1040C00078E30320B0F5800F10B50C4605D123B17D
:1040D0001A460349204601F0F1FC4FF0FF3010BDB5
:1040E000A4750D00B0F5800F10B50C4605D123B1B5
:1040F0001A460349204601F0E1FC4FF0FF3010BDA5
:10410000B5750D0010B50446006808B101F0CEFC8D
:10411000204610BD0EB400B58CB00DAA202352F875
:10412000041B03928DE8060004930168002304AA8F
:104130001E20059301F016FC0CB05DF804EB03B0F3
:104140007047000008B501F015FB064A13680146E8
:10415000C31A41F28730834286BF116001200020DC
:1041600008BD00BF7CE3032010B502F0A7F80849A2
:1041700001F001FE074801F08FF9044602F09EF8B5
:104180002346054A0121BDE8104001F01EBE00BFD4
:10419000C7750D0060E30320D7750D0010B5074CFF
:1041A000034600F108020021204601F0D7F820461E
:1041B0000021BDE8104000F080BF00BF60E3032095
:1041C0001FB5124A106851686B46022203C38DF86E
:1041D00000200023082203938DF80C200C4A62F380
:1041E0001C0302931B0E43F040038DF80B30094B68
:1041F0001A68094B1B68103B03EB820368468DF875
:104200000130FFF7CBFF05B05DF804FB9C750D0096
:104210000011EF1868E3032064E3032008B502F0FF
:104220004DF8084901F0A7FD01F028FC18B902F08B
:1042300045F8054902E002F041F80449BDE80840AC
:1042400001F099BDE7750D0009760D0017760D0098
:104250002DE9F04399B002F031F8534901F08BFD9C
:1042600052490EA802F0AEF80EA801F01CFE831E03
:104270008046042B14D8DFE803F003070B130F006C
:1042800002F01CF84A490EE002F018F849490AE029
:1042900002F014F8484906E002F010F8474902E03D
:1042A00002F00CF8464901F066FD0EA801F032FE5E
:1042B0000EA810EE104A01F047FE8DED090A01F03C
:1042C000FDFF8146204602F087FE9DED090A044667
:1042D00010EE100A0D4602F07FFE06460F46CDE9AD
:1042E0000267CDE90045374A0121484601F06DFDDE
:1042F000354A106851680AAB032203C38DF82820A1
:10430000002308220D938DF83420304A8DF829803F
:1043100062F31C030C931B0E43F040038DF8333003
:1043200030461FA3D3E90023394602F0D3FF03F040
:10433000B9F88DF82A00000A19A3D3E900238DF8F3
:104340002B002946204602F0C5FF03F0ABF88DF89C
:104350002C00000A8DF82D0001F0B0FF9DF82F20F1
:1043600006929DF82E2005929DF82D2004929DF82E
:104370002C2003929DF82B2002929DF82A20019276
:104380009DF829209DF8283000920121104A01F063
:104390001CFD0AA8FFF702FF19B0BDE8F08300BFBB
:1043A0007B14AE47E17A843F27760D00F4E30320C7
:1043B0003A760D0047760D005E760D006D760D00A5
:1043C0007B760D008D760D009C750D000011EF18A9
:1043D000B6760D0000B589B001F070FF124901F00A
:1043E000CAFC00211C2201A8009103F094F80F4B95
:1043F0000F4842F21072694601F074FA023002D19D
:104400009DF800302BB901F059FF0A4901F0B3FCC7
:1044100006E001F053FF6B46074A012101F0D5FC8D
:1044200009B05DF804FB00BFF0760D0002770D00C7
:10443000C5400D000C770D0021770D0000B589B047
:1044400001F03CFF124901F096FC00211C2201A85A
:10445000009103F060F80F4B0F4842F2107269466A
:1044600001F040FA023002D19DF800302BB901F082
:1044700025FF0A4901F07FFC06E001F01FFF6B46B3
:10448000074A012101F0A1FC09B05DF804FB00BF5F
:1044900032770D0046770D00E5400D0053770D0093
:1044A00069770D0008B502F069FA084A042101F0A5
:1044B000ABFB02F063FA002101F07EFB02F05EFA32
:1044C00008220021BDE8084001F062BB40420F0015
:1044D000F0B593B000250221052002F00DFA4FF04F
:1044E000FF33022270490095052001F00FFF0121E2
:1044F000062002F001FA2946062002F00EFA6B4867
:1045000001F009F812A912AC41F8385D674801F0D2
:1045100007F844F8345D6548214600F0EFFF9DF848
:104520001630DB0603D52146604800F0EFFF20235C
:104530000024ADF82E300823ADF830408DF830302F
:104540000F238DF80D304FF0000364F34103022672
:1045500006948DF819304FF0030366F3830366F376
:10456000051310940794CDF843408DF81C300723B1
:104570008DF83F308DF841309DF843304B48ADF811
:104580002C6043F007038DF843309DF8453001253A
:1045900066F3050305278DF845308DF80C508DF82E
:1045A0003C508DF83D508DF80E708DF83E7000F047
:1045B00058FB06A93D4801F008F807A93B4800F060
:1045C00022FC0BA9394800F0E4FB03A9374800F0AE
:1045D0008DFB364800F062FD0FA9344800F026FC40
:1045E000324800F064FB12A90894304801F8285DB5
:1045F00000F0DFFDB30167F3C50309948DF82730A0
:10460000BDF826302948552262F30A03ADF826305A
:10461000BDF8243040F2FF7262F30A0312AA214669
:1046200022F8243D00F058FD4FF0000366F3871395
:104630000D948DF837304FF0000367F347130E9455
:104640008DF83B300E9B1A4A184862F31C030E93F8
:104650000D9B6FF0604262F31C0321460DAA0D937F
:1046600000F05AFD4FF0000364F3C3038DF82830C7
:104670004FF0000364F38713B5408DF82A300AA980
:10468000C82364F3871509488DF82B308DF829501D
:1046900000F008FF2146054800F05AFF034800F0EB
:1046A00082FD13B0F0BD00BFB5400D0060E30320F4
:1046B0007800EF1010B501F001FE4FF4165101F033
:1046C000F1FD40F6B83001F0CDFB01F0F7FD1D49DA
:1046D0001D4C01F050FBFFF7E5FE4FF4FA7001F0BE
:1046E000C1FBFFF7F5FE01211C2002F005F90121B5
:1046F0001D2002F001F90121062002F0FDF8002141
:10470000062002F00AF90121042002F0F5F8002148
:10471000042002F002F900231A461946606801F0ED
:1047200075F94FF47A7001F09DFB002360681A461A
:10473000194601F04BF9FFF74DFEBDE81040FFF7B9
:104740007DBE00BF78770D00F4E3032001290BD86C
:104750001C2801D1054B02E01D2805D1044B19602E
:1047600080B2C9B202F0D9B8704700BF64E3032039
:1047700068E3032013460A46012101F026BB00002E
:1047800013B50F4C0023694620460093019300F0B7
:10479000B5FE01A9204600F0F9FC01F08FFD0949A2
:1047A00001F0E9FA01F08AFD009A0749FFF7E2FFFC
:1047B00001F084FD019A0549FFF7DCFF02B010BD4E
:1047C00060E3032080770D0098770D00A3770D003C
:1047D000F0B597B001F072FD484901F0CCFA484AB3
:1047E00048481378013BDBB2137002A900230293FF
:1047F000039300F083FE03A9424800F0C7FC9DF834
:104800000830190706D53F4800F085FE3E493F486D
:10481000FFF780FC9DF80C30DA076CD5002406AD5C
:104820004022214628460494059402F074FE03A910
:10483000344800F0B3FC2B4604AA2146314800F06E
:10484000D7FC9DF813305B06074635D501F036FDE1
:10485000049A2F4922F06042FFF78CFF049B2D4AF7
:1048600023F0604393422FD19DF81830102B2BD1A9
:104870009DF8194004F00306C4F3810401F01EFD05
:104880003346254A0094012101F09FFA31461C204D
:10489000FFF75CFF21461D20FFF758FF9DF81A30F7
:1048A000692B11D101F00AFD1C4901F064FA0221C3
:1048B000144800F04DFE07E001F000FD049A18498D
:1048C00022F06042FFF756FF01F0F8FC154901F0B5
:1048D0003FFA0024BC4208DA01F0F0FC2B5D124ADA
:1048E000002101F072FA0134F4E701F0E7FC0F4A0D
:1048F000012101F06AFA17B0F0BD00BFAF770D00DB
:1049000078E3032060E30320BD770D00BCE30320C0
:10491000DB770D007800EF10F1770D0004780D00C3
:1049200013780D003E7A0D0029780D00EE760D000B
:1049300013460A46012101F048BA000010B501F003
:10494000BDFC204901F017FA122001F0FFFF0446D8
:1049500001F0B4FC22461C49FFF7EAFF112001F0E8
:10496000F5FF044601F0AAFC22461849FFF7E0FFD4
:10497000102001F0EBFF044601F0A0FC2246144990
:10498000FFF7D6FF0F2001F0E1FF044601F096FC8F
:1049900022461049FFF7CCFF0E2001F0D7FF044656
:1049A00001F08CFC22460C49FFF7C2FF152001F0F4
:1049B000CDFF044601F082FC22460849FFF7B8FF0C
:1049C00010BD00BF68780D007C780D0092780D0056
:1049D000A8780D00BE780D00D4780D00E8780D00A1
:1049E00010B500F0C7FE2F4B186001F03FF82E4BBA
:1049F0001A781C460AB1FFF7EBFEFFF7A3FB00286D
:104A00004ED0FFF70BFCFFF723FCFFF797FF01F0F9
:104A100055FC264B26491A68FFF7ACFE01F04EFC08
:104A2000244B25491A68FFF7A5FE01F047FC2349EE
:104A300001F0A1F901F042FC2378214A012101F0A3
:104A4000C4F9FFF791FBFFF7BBFBFFF799FE1D4889
:104A500000F0A7FD044601F031FC23461A4A01216B
:104A600001F0B3F9022C15D101F028FC174901F02F
:104A700082F90121062001F050FF012000F072FEB2
:104A80000620002101F049FF4FF47A70BDE8104084
:104A900000F068BE012C03D1BDE81040FFF718BD3F
:104AA00010BD00BF30E7032078E3032064E3032058
:104AB00046780D0068E3032057780D00FC780D0060
:104AC00013790D0060E3032025790D0036790D0080
:104AD00010B500F0B7FD0D4C0021012000F05AFF89
:104AE00000232360A380A371238103204FF6FF736B
:104AF000638100F03FFF0649064A204601F09EFF11
:104B000008210548BDE8104000F00AB86CE3032016
:104B100005410D005CE3032060E3032000F092BD3B
:104B200010B5044608462170012101F0E5FE207809
:104B3000012101F0F2FE204610BD38B50C46007888
:104B40000021154601F0E9FE01F018FF612101F096
:104B50008DF801F013FF210A01F088F801F00EFF33
:104B6000E1B201F083F801F009FF2946BDE83840C1
:104B700001F07CB810B50C4601F000FF210E01F0E9
:104B800075F801F0FBFEC4F3074101F06FF801F086
:104B9000F5FEC4F3072101F069F801F0EFFEE1B280
:104BA000BDE8104001F062B838B50C46007800212D
:104BB000154601F0B2FE01F0E1FE412101F056F888
:104BC00001F0DCFE210A01F051F801F0D7FEE1B25C
:104BD00001F04CF801F0D2FE2946BDE8384001F062
:104BE00045B870B501F0CAFE002101F03FF8064655
:104BF00001F0C4FE002101F039F8044601F0BEFEC8
:104C0000002101F033F8054601F0B8FE002101F063
:104C10002DF8240444EA0664204340EA052070BDD0
:104C20000121007801F079BE38B501220446FFF772
:104C3000BBFF2046FFF7D5FF05462046FFF7F0FFF4
:104C4000284638BD38B5044615460122FFF775FFE2
:104C500020462946FFF78EFF2046BDE83840FFF783
:104C6000DFBF70B541F218010646FFF7DDFF00F027
:104C70000303032B19D020F01B00052440F003058B
:104C80002A4641F218013046FFF7DCFF41F21801D5
:104C90003046FFF7C9FF00F00300032805D0013CB0
:104CA00014F0FF04ECD1204670BD012070BD38B572
:104CB00041F218010546FFF7B7FF820714D5052416
:104CC00020F01B0241F218012846FFF7BBFF41F21A
:104CD00018012846FFF7A8FF830705D5013C14F00B
:104CE000FF04EDD1204638BD012038BD70B50B78EA
:104CF00003F03F03202B054603D8002B08BF0123F8
:104D000000E020234E7806F03F06013B212E4FEABB
:104D1000034303D8012E98BF022600E021268A789B
:104D200002F01F02B41E102A4FEA042443F40003C9
:104D300003D8002A08BF012200E01022013A2343D1
:104D4000134343EA0214224641F20C012846FFF7BE
:104D500079FF41F20C012846FFF766FF844201D03B
:104D6000002070BD013E3602324641F2480128461D
:104D7000FFF768FF41F248012846FFF755FF8642DA
:104D8000EED1284602224FF48151FFF75BFF01204C
:104D900070BD38B50B88C3F30903B3F5007F054632
:104DA00003D8002B08BF012301E04FF40073013B3F
:104DB0001A044B88C3F30803B3F5817F03D2012B98
:104DC00098BF022301E040F201130C79023B802CD2
:104DD00042EA032303D8012C98BF022400E0802478
:104DE000013C234343EA44642246284641F21C0125
:104DF000FFF728FF41F21C012846FFF715FF231A91
:104E00005842584138BD38B50C6804F03F04054697
:104E100022464FF48451FFF715FF4FF48451284682
:104E2000FFF702FF231A5842584138BD2DE9F84FC9
:104E30000E78802E04460D4601D81EB100E0802673
:104E4000370400E037463A4641F284012046DFF855
:104E50004492FFF7F7FE41F284012046C9F8007042
:104E6000FFF7E2FE874202D00020BDE8F88F6F789E
:104E700007F07F07402F4FEA860601D827B100E0F0
:104E8000402746EA074800E0B846424641F288011A
:104E90002046FFF7D7FE41F288012046C9F804807A
:104EA000FFF7C2FE8045DFD106EBC706AF7807F0FB
:104EB0007F07402F01D837B100E0402746F0004877
:104EC00048EA074800E0B846EB78DFF8CCA103F0E9
:104ED000070342464FF4855120461AF803B0FFF706
:104EE000B1FE4FF485512046C9F80880FFF79CFEBB
:104EF0008045B9D10BF1080B07FB0B662F7907F042
:104F00007F07402F1FFA86FB01D827B100E040271A
:104F10004BEA074600E03E466B7903F00703324652
:104F200041F2B00120461AF80380FFF78BFE41F2F0
:104F3000B0012046C9F80C60FFF776FE864293D197
:104F400008F1080807FB08B7BEB2AF7907F07F0782
:104F5000402F01D81FB100E04027B34600E0BB4618
:104F6000EB7903F007035A4641F2AC0120461AF8E8
:104F70000380FFF767FE41F2AC012046C9F810B08C
:104F8000FFF752FE83457FF46FAF08F1080807FB77
:104F900008672E7A06F03F06202EBFB201D826B150
:104FA00000E0202647EA064800E0B046424641F2CB
:104FB000F0012046FFF746FE41F2F0012046C9F815
:104FC0001480FFF731FE80457FF44EAF07EBC60635
:104FD0006F7A07F03F07202FB6B201D837B100E053
:104FE000202746F0804B4BEA076B00E0BB46AB7ACC
:104FF000DFF8A08003F007035A464FF4865120469D
:105000001AF803A0FFF71EFE4FF486512046C9F898
:1050100018B0FFF709FE83457FF426AF0AF1080AAE
:1050200007FB0A66B6B248F601039E423FF61CAF84
:105030006B79EE7903F007031B0106F0070643EADC
:105040000626EB7803F007031E43324641F2BC010B
:105050002046FFF7F7FD41F2BC012046C8F81C606E
:10506000FFF7E2FD86427FF4FFAEAD7A05F007055B
:105070002A46204641F2C801FFF7E4FD41F2C8018B
:105080002046C8F82050FFF7CFFD2B1A5842584150
:10509000BDE8F88F80E3032059790D0038B5054647
:1050A0004FF400442146043400222846A4B2FFF7FE
:1050B000C9FDB4F5084FF5D138BD1F2910B508D882
:1050C000012404FA01F241F2D001FFF7BBFD2046B2
:1050D00010BD002010BD000070B50E4B1B681546BA
:1050E000C3F307428A42064612D3A3F500438C005D
:1050F00014FA83F4A4B22A682146FFF7A3FD2146DF
:105100003046FFF791FD2B681B1A5842584170BD7D
:10511000002070BD80E30320F8B51B4B5B68174689
:10512000C3F307428A42064601D20020F8BDA3F528
:105130000043CC0014FA83F4FD797B686D09C3F356
:105140001C0343EA4575A4B22A462146FFF77AFDBF
:1051500021463046FFF768FD8542E6D1FD783B6881
:105160000434C3F31C03AD0943EA8575A4B22A468F
:1051700021463046FFF766FD21463046FFF754FDD5
:105180002B1A58425841F8BD80E3032010B50C4655
:1051900041F25001FFF748FD206010BD0A6841F25E
:1051A0005001FFF74FBD4FF0FF3241F25001FFF7C2
:1051B00049BD10B504460A6841F25401FFF742FDAB
:1051C0002046012241F25C01BDE81040FFF73ABDE4
:1051D000082906D90F2906D80448014411F8090CFA
:1051E0007047084670470020704700BF61790D0086
:1051F00001292DE9F84F074688469346994612D073
:1052000041F2A401FFF710FD420602D10020BDE8E3
:10521000F88F504B1D89DB69C0F3052685F40045E6
:1052200003F007030EE041F2B401FFF7FDFC430673
:10523000ECD0484B9D89DB69C0F3052685F4004519
:10524000C3F30213444AD45C04F1080303FB06557C
:10525000ADB2294602223846FFF7A6FC3846FFF7D2
:10526000C0FC9BF80330C20F62F3C713820F62F3D6
:105270008613420F62F345138BF8033013F0400F8F
:10528000DBF8003008BFC0F38A4060F31C03CBF8A2
:1052900000303846FFF7A5FC82463846FFF7C0FCD1
:1052A0009BF80630ABF804A04FEA1A4161F3030300
:1052B0004FEA1A5262F304134FEA5A5262F345134B
:1052C0008BF806309BF807304FEA1A6262F3060348
:1052D0004FEADA7262F3C7138BF8073001F00F015F
:1052E0003846FFF775FFA04228BF204610F0FF04A4
:1052F00021D005F10801E21CC2F3870289B23846C9
:10530000FFF752FC002515F0030B03D13846FFF7D9
:1053100068FC82464FEACB0B2AFA0BFB09F805B072
:105320000135EDB2A54228BF2546AC42EBD8384640
:10533000FFF776FC2C46B8F1010F3846324614BF11
:1053400041F2A80141F2B801FFF77CFC2046BDE81C
:10535000F88F00BF80E3032059790D002DE9F0415B
:1053600017464A4A0E4691691D46C1F30543202B54
:1053700028BF2023C1F3056EBEF1200F94BF7344F4
:105380002033B34204467DDD136A414A03F007032C
:10539000A1F50041D35C0833DBB213FB06F313FA2B
:1053A00081F3397901F00F019BB2FFF711FF00F192
:1053B00008028107C2F387021CBF0132D2B219462C
:1053C0002046FFF7BAFBFA78110612F0400F01F001
:1053D0006043396805BF2F4A8904C1F31C010A40A4
:1053E00014BF194342EA03012046FFF7C3FB3B7990
:1053F00079791B0403F43F0343EA01612046FFF778
:10540000B9FB3979204601F00F01FFF7E1FE0023D7
:10541000804643452FD2C3EB0802032A11DC00214A
:10542000E85C03F003020133D200DBB200FA02F2BF
:10543000984541EA0201F3D12046FFF79BFB47461E
:1054400014E05A1C981CD2B2C0B2A95C2A5C1204A7
:1054500042EA01221F1DE95C0333DBB20A43E95C27
:10546000204642EA0161FFB2FFF784FB474528BFAF
:105470004746FBB2CDE72046FFF7D2FB0120B04004
:10548000BDE8F0810020BDE8F08100BF80E303208B
:1054900059790D000000FC1F08B50821FFF7C4FB77
:1054A00080B208BD38B50C464FF400610546FFF7E1
:1054B000BBFB2368104A6FF300036FF307136FF30E
:1054C0000C336FF315536FF31A636FF31D7343F0CF
:1054D0002003024043EA0204224628464FF40061BA
:1054E000FFF7B0FB4FF400612846FFF79DFB231A3E
:1054F0005842584138BD00BFF110113710B50C4665
:105500004FF40261FFF790FB206010BD0A684FF472
:105510000261FFF797BB4FF0FF320C21FFF792BB00
:1055200038B505460A680C464FF40361FFF78AFB5D
:105530004FF403612846FFF777FB044B22681840BD
:105540001A40131A5842584138BD00BF00D769FFAE
:1055500070B50E464FF400610546FFF765FB012E5E
:1055600020F0C00406D002D3022E05D017E044F08C
:10557000800401E044F04004224628464FF40061D4
:10558000FFF760FB4FF400612846FFF74DFB04F086
:10559000C00400F0C000231A5842584170BD0020DA
:1055A00070BD08B54FF40061FFF73EFB00F0C0008E
:1055B000402806D0802806D000280CBF02200120F9
:1055C00008BD012008BD002008BD70B50B684FF272
:1055D000F4321A4042F00304224605460E4641F2D8
:1055E0001801FFF72FFB41F218012846FFF71CFBBB
:1055F0004FF2E43384EA000213406BB9337800F0D1
:105600001000C3F30013984208D02846FFF7C9FFE3
:10561000431E5842584170BD002070BD012070BD2E
:1056200000F010B808B5024B1B689B68019308BDD9
:105630006802030008B5024B1B68DB68019308BDD4
:105640006802030008B5024B1B681B68019308BD84
:105650002C02030008B5024B1B685B68019308BD70
:105660002C02030008B5024B1B689B68019308BD20
:105670002C02030008B5024B1B68DB68019308BDD0
:105680002C02030008B5024B1B681B69019308BD7F
:105690002C02030008B5024B1B689B69019308BDEF
:1056A0002C02030008B5024B1B68DB69019308BD9F
:1056B0002C02030008B5024B1B681B6B019308BD4D
:1056C0002C02030008B5024B1B68DB68019308BD80
:1056D0003002030008B5024B1B681B69019308BD2B
:1056E0003002030008B5024B1B685B69019308BDDB
:1056F0003002030008B5024B1B68DB69019308BD4B
:105700003002030008B5024B1B681B6A019308BDF9
:105710003002030008B5024B1B685B6A019308BDA9
:105720003002030008B5024B1B68DB6A019308BD19
:105730003002030008B5024B1B681B6C019308BDC7
:105740003002030008B5024B1B685B6C019308BD77
:105750003002030008B5024B1B685B68019308BD6B
:105760001802030008B5024B1B68DB68019308BDF3
:105770001802030008B5024B1B685B69019308BD62
:105780001802030008B5024B1B689B68019308BD13
:105790004802030008B5024B1B681B69019308BD52
:1057A0004802030008B5024B1B685B69019308BD02
:1057B0004802030008B5024B1B685B6C019308BDEF
:1057C0004802030008B5024B1B689B6C019308BD9F
:1057D0004802030008B5024B1B685B69019308BDD2
:1057E0006402030008B5024B1B681B68019308BDE7
:1057F0003C02030008B5024B1B68DB68019308BD3F
:105800003C02030008B5024B1B681B69019308BDED
:105810003C02030008B5024B1B685B69019308BD9D
:105820003C02030008B5024B1B689B69019308BD4D
:105830003C02030008B5024B1B68DB69019308BDFD
:105840003C02030008B5024B1B681B6A019308BDAC
:105850003C02030008B5024B1B689B6A019308BD1C
:105860003C02030008B5024B1B681B6A019308BD8C
:105870002802030008B5024B1B685B6A019308BD50
:105880002802030008B5024B1B689B6A019308BD00
:105890002802030008B5024B1B68DB6A019308BDB0
:1058A0002802030008B5024B1B681B6B019308BD5F
:1058B0002802030008B5024B1B685B6B019308BD0F
:1058C0002802030008B5024B1B681B6C019308BD3E
:1058D0002802030008B5024B1B685B6C019308BDEE
:1058E0007402030008B5024B1B689B6C019308BD52
:1058F0007402030008B5024B1B681B68019308BDC6
:105900004C02030008B5024B1B685B68019308BD9D
:105910004C02030008B5024B1B681B69019308BDCC
:105920004C02030008B5024B1B685B69019308BD7C
:105930004C02030008B5024B1B689B69019308BD2C
:105940004C02030008B5024B1B68DB69019308BDDC
:105950004C02030008B5024B1B681B6A019308BD8B
:105960004C02030008B5024B1B685B6D019308BD38
:105970006002030008B5024B1B685B68019308BD19
:105980002002030008B5024B1B685B69019308BD48
:105990002002030008B5024B1B68DB6A019308BDB7
:1059A0002002030008B5034B1B68D3F8883001932D
:1059B00008BD00002002030008B5034B1B68D3F8A4
:1059C0009430019308BD00002002030008B5024B8B
:1059D0001B685B68019308BD4002030008B5024BD9
:1059E0001B689B68019308BD4002030008B5024B89
:1059F0001B68DB68019308BD4002030008B5024B39
:105A00001B681B69019308BD4002030008B5024BE7
:105A10001B685B69019308BD4002030008B5024B97
:105A20001B689B69019308BD4002030008B5024B47
:105A30001B68DB69019308BD4002030008B5024BF7
:105A40001B681B6A019308BD4002030008B5024BA6
:105A50001B681B6B019308BD4002030008B5024B95
:105A60001B685B6B019308BD4002030008B5024B45
:105A70001B689B68019308BD4402030008B5024BF4
:105A80001B685B69019308BD4402030008B5024B23
:105A90001B68DB6B019308BD4402030008B5024B91
:105AA0001B681B68019308BD1C02030008B5024B6C
:105AB0001B685B68019308BD1C02030008B5024B1C
:105AC0001B685B69019308BD1C02030008B5024B0B
:105AD0001B685B6A019308BD1C020300002211468B
:105AE0004068FFF7ABBF002211464068FFF7B6BF22
:105AF00000224068FFF7AABF002281F00101406840
:105B0000FFF794BF00231A4619464068FFF786BF87
:105B100000231A4619464068FFF778BF0022114655
:105B20004068FFF76BBF002211464068FFF756BF81
:105B3000002202214068FFF759BF00231A4640683F
:105B4000FFF744BF024B03225A60024A1A607047B3
:105B5000A4E3032070790D00704710B50C210446B2
:105B600000F07AFF204610BD0021FFF7E3BD0021C1
:105B7000FFF7E8BD10B5054B036004460171084608
:105B8000FFF7B8FD0023A360204610BDA4790D00E7
:105B900070B5044600790D461646FFF7E5FF03464B
:105BA00048B9207932462946FFF7BCFD2079BDE887
:105BB0007040FFF7DCBF70BD38B5044600790D4674
:105BC000FFF7D2FF40B920792946FFF77BFD207906
:105BD000BDE83840FFF7CBBF38BD0000400830B506
:105BE0001860002418688842E5B206D90134082CF0
:105BF00002D040081860F5E70725024B5B5D137083
:105C000030BD00BFAC790D002DE9F04188B0002314
:105C10000446007902930E461746FFF7A5FF054696
:105C200000BB94F804800146142203A801F073FC21
:105C30000B232A4603A94046ADF80C30FFF76AFD56
:105C400002AB0DF1070207FB06F104988DF807502F
:105C5000FFF7C4FF20799DF80710FFF73BFD20797F
:105C6000FFF785FF029808B0BDE8F08138B504461B
:105C700000790D46FFF778FF40B929462079FFF7F4
:105C800031FD05462079FFF772FF00E00025E8B2FC
:105C900038BD0079FFF736BD10B5094C00204FF62E
:105CA000FF732060A080A07120816381FFF762FEF6
:105CB0002046044A0449BDE8104000F0BFBE00BFC2
:105CC000ACE303205CE3032005410D0010B504465E
:105CD000006808B1FFF776FD204610BD10B5064CF0
:105CE000002320462360FFF765FD2046034A044950
:105CF000BDE8104000F0A2BEB8E303205CE303203F
:105D0000CD5C0D00F8B506460D468F180024BD4247
:105D10000CD0336815F8011B9B6830469847002863
:105D200001DB0444F3E7002C08BF04462046F8BD1D
:105D300070B505460C46084649B101F01DFC2B68BC
:105D4000024621462846DB68BDE87040184770BD12
:105D500008B5FFF7EDFF08BD03689B68184738B525
:105D60000D210546FFF7F8FF0A2104462846FFF7F4
:105D7000F3FF204438BD38B50546FFF7D9FF044688
:105D80002846FFF7ECFF204438BD30B58BB00B46FA
:105D900000218DF82410012A98BF0A220DF1230456
:105DA000B3FBF2F505FB123303F0FF03092B94BF9D
:105DB00030333733DBB2214604F801392B46002D4E
:105DC000EED1FFF7B5FF0BB030BD0CB42DE9F043B9
:105DD00087B000AF07F13804054654F8049B3C60D7
:105DE0000E4623464A461421381DFFF76FFE13283E
:105DF00005D8391D2846FFF79BFF044613E000F144
:105E0000080323F00703E846ADEB030D411C2346CE
:105E10004A4668463C60FFF759FE69462846FFF748
:105E200087FF0446C5461EB12846FFF798FF044485
:105E300020461C37BD46BDE8F04302B07047000065
:105E4000014B024A1A607047BCE30320277A0D0019
:105E5000024B1A68024B1A60704700BFF4E203203D
:105E6000C0E303200021FFF78DBD10B58368044611
:105E700013B1032201469847204610BD10B50446D1
:105E8000FFF7F3FF204610BD0348044A04490023EE
:105E9000836000F0D3BD00BFC4E303205CE30320B4
:105EA0007D5E0D007047007D70470000037D1BB1D3
:105EB0008369B3F1004F02D19FED050A704707EEE9
:105EC000903A9FED047AF8EEE77A87EE870A7047FA
:105ED000000000000000C842037D1BB1036AB3F15B
:105EE000004F02D19FED050A704707EE903A9FEDF3
:105EF000047AF8EEE77A87EE870A70470000000020
:105F00000000C84210B52821044600F0A5FD204637
:105F100010BD0000037D7BB1436A002B0CDB07EE54
:105F2000903ADFED076A9FED070AB8EEE77AC7EE11
:105F3000267A27EE800A7047BFEE000A704700BF3E
:105F400000FF7F470000C842037D7BB1C369002B7F
:105F50000CDB07EE903ADFED076A9FED070AB8EE1B
:105F6000E77AC7EE267A27EE800A7047BFEE000A6E
:105F7000704700BF00FF7F470000C84230B50D46A4
:105F800000F110040FCD0FC495E8030084E803006E
:105F9000012030BD2DE9F04107460C4615462AB9CF
:105FA0000368C9B29B68BDE8F0411847002907DAC9
:105FB0000A2A05D12D21FFF7CFFE6142064601E0F6
:105FC00021460026EAB23846FFF7DFFE3044BDE83E
:105FD000F08170B50D4606460A2281682846FFF713
:105FE000D9FF2C2104462846FFF7B6FE0A220444B6
:105FF000F1682846FFF7CEFF204470BDA0F10400F1
:10600000FFF7E7BF08B50C4B33B100F057F9036851
:106010001B699847002809DC084B63B100F080FA3F
:1060200003681B699847002803DC08BDAFF30080B4
:10603000F2E7AFF3008008BD0000000000000000A0
:1060400008B5FFF7DFFFFFF795FB014B186008BDB0
:1060500030E703200248034A0349121A01F050BAFC
:1060600000F4032004F40320D07C0D0007B50023C6
:1060700000931A466FF07701FFF79EFC03B05DF8BE
:1060800004FB000007B543880A2B08D0502B09D128
:10609000094B1B683BB103B05DF804EB1847FFF7F1
:1060A000E5FF06E0002300931A466FF07701FFF743
:1060B00083FC03B05DF804FBD4E3032038B5104C37
:1060C000104D2368AB42104B0CBF012200221A7006
:1060D00002D0FFF7BFFF2560FFF73CFB044601F04D
:1060E00023FA0A4B13B12046AFF300800021074882
:1060F000FFF7CCFC00210648BDE83840FFF752BC52
:1061000000F403201E1C279AD8E30320000000009F
:1061100085600D00704710B51821044600F09CFC06
:10612000204610BDF0B5037D062B8DB00E4600F164
:1061300004074FF0000402D000F1080518E00CAD90
:10614000394605F8304D2F232A460A20FFF742FB37
:10615000284601F011FA33680246DB6829463046CA
:1061600098470FE024B12E213046FFF7F5FD044497
:1061700015F8011D0A223046FFF707FEBD42044410
:10618000F0D120460DB0F0BD10B5054B04461122EC
:1061900040F8043B002101F0BEF9204610BD00BFCD
:1061A000F47A0D000346074A10B543F8042B01F1B9
:1061B000100251F8044B43F8044B9142F9D10A788C
:1061C0001A7010BDF47A0D0010B59DF8084044EA2D
:1061D000032343EA024242EA01610423416003755A
:1061E00010BD37B50D788B784A78C978009129466B
:1061F000FFF7EAFF03B030BD41747047704708B540
:106200000021007CFFF796FB30EA200028BF4FF00A
:10621000FF3008BD08B50121007CFFF78BFB30EA99
:10622000200028BF4FF0FF3008BD08B5007CFFF705
:1062300079FB20EAE07008BD08B5007CFFF76AFB37
:1062400020EAE07008BD007CFFF784BB10B5142184
:10625000044600F001FC204610BD38B50446007C21
:106260000D46FFF75FFB002801DC607C28B1294662
:10627000207CFFF767FB20EAE07038BD10B50446CC
:10628000002363604FF47A73A360054B23600123FE
:106290000846217463741146FFF72CFB204610BD9D
:1062A000087B0D000022007CFFF72CBB10B51422E8
:1062B0000446002101F02FF9204610BD30B50E4DE7
:1062C00087B001A8FFF7F2FF296811F0010410D18F
:1062D0002846FDF7E6FE60B101AA21460748FFF710
:1062E000CDFF2846FDF7E2FE054A0649034800F0C7
:1062F000A5FB024807B030BDDCE30320E0E3032048
:106300005CE30320FD610D0000470000F0B585B09F
:106310001C460E4617460546FFF7C4F90020844286
:106320004FF0040303908DF80C30A5BF9DF8283082
:106330008DF80E30034603AB009332463B460649C8
:10634000A8BF8DF80D402846FFF7A4F9B0FA80F0F9
:10635000400905B0F0BD00BF09630D0000221146E1
:106360004068FFF74BBB002211464068FFF766BB51
:10637000002211464068FFF771BB00224068FFF71A
:1063800065BB002281F001014068FFF74FBB00238D
:106390001A4619464068FFF741BB00231A461946C2
:1063A0004068FFF733BB002211464068FFF716BB79
:1063B000002202214068FFF719BB00231A464068FB
:1063C000FFF704BBF0B51B4B036000250F462833D5
:1063D000182689B043608560C56032462946044668
:1063E000103001F098F82A4629467868FFF706FB36
:1063F00008B9A0601BE02946324602A80095019525
:1064000001F089F802A96846ADF80860FFF762FA62
:1064100010B10123A3600AE0009B019AA360E2602F
:106420000BB90223A36002A92046FFF7A7FD20466F
:1064300009B0F0BDC07A0D0038B5084C28252A46B1
:106440000021204601F067F84FF0FF336360044BF2
:10645000258004225A60034A1A6038BDFCE30320F9
:10646000F4E30320387B0D0070474174704708B592
:10647000007CFFF7EFF920EAE07008BD08B5007C6A
:10648000FFF7C0F920EAE07008BD08B5007CFFF70F
:10649000C9F930EA200028BF4FF0FF3008BD08B529
:1064A000007CFFF7B7F930EA200028BF4FF0FF303B
:1064B00008BD007CFFF7BEB910B51421044600F0FA
:1064C000CBFA204610BD70B5457C04460E4625B972
:1064D000007CFFF7BFF9002805DD3146207CBDE8D0
:1064E0007040FFF787B9284670BD000010B504461C
:1064F00008461146002262604FF47A72A260054A93
:1065000022600122207462741A46FFF76BF920465C
:1065100010BD00BF6C7B0D00007CFFF793B900003D
:1065200038B50C4D296811F0010411D12846FDF74A
:10653000B8FD68B1084A094B09482146FFF7D6FF64
:106540002846FDF7B3FD074A0749054800F076FAEB
:10655000034838BDBCE40320C0E4032038E4032032
:1065600024E403205CE3032069640D007047F8B560
:10657000064615460C468F18BC4206D0336814F800
:10658000011B9B6830469847F6E72846F8BD002275
:10659000007CFFF767B90021007CFFF76BB9002191
:1065A000007CFFF76FB90021007CFFF773B9002171
:1065B000007CFFF777B910B51421044600F04CFABF
:1065C000204610BD10B50446002363604FF47A7373
:1065D000A360044B2174084623601146FFF772F94B
:1065E000204610BD9C7B0D000021007CFFF762B9A6
:1065F000002211464068FFF721BA00221146406888
:10660000FFF72CBA00224068FFF720BA002281F081
:1066100001014068FFF70ABA00231A4601214068C9
:10662000FFF7FCB900231A4619464068FFF7EEB998
:10663000002211464068FFF7E1B900221146406888
:10664000FFF7CCB9002202214068FFF7CFB9002341
:106650001A464068FFF7BAB938B5054688B10468EC
:106660004CB1A3681BB10322214620469847102154
:10667000204600F0F1F928461421BDE8384000F02A
:10668000EBB938BD10B103685B681847704710B5A7
:1066900003680446BBB15868FFF774F878B92368FB
:1066A0005A7C12B95868FFF775F823685868FFF7E5
:1066B00079F820680023236028B1FFF7CDFF206818
:1066C00008B1FFF7C9FF204610BD38B50446D0F821
:1066D000C40108B1FDF7E3FCD4F8C00108B1FFF72D
:1066E00071F8D4F8BC5135B12846FFF7D0FF04212A
:1066F000284600F0B1F9206808B1FFF7C3FF204633
:1067000038BD000010B5044B044640F8083BFFF7C5
:10671000DCFF204610BD00BFC47B0D0038B50E4C19
:106720000E4B23600025022304F5E4706360A5602E
:10673000C4F8C451C4F8C851FFF73CF8084BC4F87A
:10674000CC5184F8D05123602046064A0649BDE862
:10675000384000F073B900BF44E50320F87B0D001A
:10676000C47B0D005CE3032005670D0000231A467F
:106770004068FFF72BB9002202214068FFF736B9C5
:10678000002211464068FFF729B9002211464068EF
:10679000FFF734B900231A4619464068FFF736B9A7
:1067A00000231A4619464068FFF738B9002281F0E5
:1067B00001014068FFF73AB900224068FFF746B987
:1067C000002211464068FFF749B90022114640688F
:1067D000FFF734B92DE9F043002495B016460D4675
:1067E0000746FFF7D1FC214620220CA8009400F0B8
:1067F00092FE40230C9321466B460CAA3046FEF7CE
:1068000019FF0446002844D1024601216868FFF7B9
:10681000F5F80221804622466868FFF7EFF8009EEF
:1068200081462146002E34D0002932D17368022BD4
:1068300002D00A2B09D02AE0B8F1000F27D07169E5
:1068400038460431FFF7CDFC20E0B9F1000F1ED02F
:106850007469112201A800F05EFE06238DF8143041
:1068600001AD04F108031834186859682A4603C2B8
:106870000833A3421546F7D101A906A807ADFFF7D3
:1068800091FC0FCD3C1D0FC42B6823700121F669CC
:10689000C8E70098FEF7C6FE384615B0BDE8F0839D
:1068A000024B034A1A6000225A60704718E703201F
:1068B000F87B0D0010B5044600F060F8FFF7E9F929
:1068C00028B1A4F10B03022B01D8002010BD00F069
:1068D0008FF8FFF789FE08B1012CF6D9FFF720FEEB
:1068E000FFF71AFE18B1A4F10903012BEDD9252CED
:1068F0008CBF0020012010BD252838B504460D4668
:106900000AD8FF2908D0FFF7D5FF28B1294620462D
:10691000BDE83840FEF7A6BE38BD38B504460D4682
:10692000FEF7A8FEFF2810D0062804D84D2323FA2E
:1069300000F0C30709D42046FFF7BCFF28B1294661
:106940002046BDE83840FEF79DBE38BD0D2810B585
:1069500004469CBF0E34A4B22046FFF7ABFF50B1F3
:1069600003212046FEF776FE032804D12046BDE829
:106970001040FEF79FBE002010BD000038B50B4D43
:10698000296811F001040FD12846FDF78AFB58B1A0
:1069900021460748FFF7EEF82846FDF787FB054A32
:1069A0000549034800F04AF8014838BD2CE70320A8
:1069B00020E703205CE30320595B0D0070B504461B
:1069C00014252A46094E002100F0A5FD258020252A
:1069D0003146A5602561284600F040F831466060E8
:1069E000284600F03BF8E060204670BD247C0D0096
:1069F00030B50E4D296811F0010487B013D1284637
:106A0000FDF74FFB78B101A8FFF7D8FF01AA214697
:106A10000748FFF7D7FD2846FDF748FB054A06491A
:106A2000034800F00BF8024807B030BD34E70320FC
:106A300038E703205CE303206D650D000B4601463B
:106A4000184600F04FBD0000024B1868BFF35F8F7F
:106A5000704700BF4CE70320FDF71FBB00F000B8F4
:106A600010B5002814BF044601242046FFF716F88D
:106A700020B9FFF7E9FF08B18047F6E710BD000035
:106A8000184B1A68D1075CBF01221A60164B1A68AE
:106A9000D2075CBF01221A60144B1A68D0075CBF92
:106AA00001221A60124B1A68D1075CBF01221A60DA
:106AB000104B1A68D2075CBF01221A600E4B1A688D
:106AC000D0075CBF01221A600C4B1A68D1075CBF6B
:106AD00001221A600A4B1A68D2075CBF01221A60B1
:106AE000704700BF6CE7032068E7032064E70320DA
:106AF00060E703205CE7032058E7032054E7032006
:106B000050E70320244B1A68D0075CBF01221A60AB
:106B1000224B1A68D1075CBF01221A60204B1A6809
:106B2000D2075CBF01221A601E4B1A68D0075CBFF7
:106B300001221A601C4B1A68D1075CBF01221A603F
:106B40001A4B1A68D2075CBF01221A60184B1A68E8
:106B5000D0075CBF01221A60164B1A68D1075CBFD0
:106B600001221A60144B1A68D2075CBF01221A6016
:106B7000124B1A68D0075CBF01221A60104B1A68CA
:106B8000D1075CBF01221A600E4B1A68D2075CBFA6
:106B900001221A60704700BF9CE7032098E703209A
:106BA00094E7032090E703208CE7032088E7032085
:106BB00084E7032080E703207CE7032078E70320B5
:106BC00074E7032070E70320244B1A68D0075CBFEA
:106BD00001221A60224B1A68D1075CBF01221A6099
:106BE000204B1A68D2075CBF01221A601E4B1A683C
:106BF000D0075CBF01221A601C4B1A68D1075CBF2A
:106C000001221A601A4B1A68D2075CBF01221A606F
:106C1000184B1A68D0075CBF01221A60164B1A681D
:106C2000D1075CBF01221A60144B1A68D2075CBFFF
:106C300001221A60124B1A68D0075CBF01221A6049
:106C4000104B1A68D1075CBF01221A600E4B1A68FC
:106C5000D2075CBF01221A60704700BFCCE7032057
:106C6000C8E70320C4E70320C0E70320BCE70320F4
:106C7000B8E70320B4E70320B0E70320ACE7032024
:106C8000A8E70320A4E70320A0E70320184B1A6815
:106C9000D1075CBF01221A60164B1A68D2075CBF8D
:106CA00001221A60144B1A68D0075CBF01221A60D7
:106CB000124B1A68D1075CBF01221A60104B1A6888
:106CC000D2075CBF01221A600E4B1A68D0075CBF66
:106CD00001221A600C4B1A68D1075CBF01221A60AE
:106CE0000A4B1A68D2075CBF01221A60704700BFC6
:106CF000ECE70320E8E70320E4E70320E0E70320D4
:106D0000DCE70320D8E70320D4E70320D0E7032003
:106D100081F0004102E000BF83F0004330B54FEA4C
:106D200041044FEA430594EA050F08BF90EA020FB9
:106D30001FBF54EA000C55EA020C7FEA645C7FEA4C
:106D4000655C00F0E2804FEA5454D4EB5555B8BF6F
:106D50006D420CDD2C4480EA020281EA030382EAE0
:106D6000000083EA010180EA020281EA0303362D72
:106D700088BF30BD11F0004F4FEA01314FF4801C45
:106D80004CEA113102D0404261EB410113F0004F57
:106D90004FEA03334CEA133302D0524263EB43030E
:106DA00094EA050F00F0A780A4F10104D5F1200EAC
:106DB0000DDB02FA0EFC22FA05F2801841F1000107
:106DC00003FA0EF2801843FA05F359410EE0A5F1DB
:106DD00020050EF1200E012A03FA0EFC28BF4CF00C
:106DE000020C43FA05F3C01851EBE37101F00045C2
:106DF00007D54FF0000EDCF1000C7EEB00006EEBCF
:106E00000101B1F5801F1BD3B1F5001F0CD3490858
:106E10005FEA30004FEA3C0C04F101044FEA4452AF
:106E200012F5800F80F09A80BCF1004F08BF5FEA36
:106E3000500C50F1000041EB045141EA050130BD16
:106E40005FEA4C0C404141EB010111F4801FA4F1B9
:106E50000104E9D191F0000F04BF01460020B1FA0E
:106E600081F308BF2033A3F10B03B3F120020CDA46
:106E70000C3208DD02F1140CC2F10C0201FA0CF024
:106E800021FA02F10CE002F11402D8BFC2F1200C89
:106E900001FA02F120FA0CFCDCBF41EA0C0190403F
:106EA000E41AA2BF01EB0451294330BD6FEA040488
:106EB0001F3C1CDA0C340EDC04F11404C4F1200273
:106EC00020FA04F001FA02F340EA030021FA04F385
:106ED00045EA030130BDC4F10C04C4F1200220FADC
:106EE00002F001FA04F340EA0300294630BD21FA1A
:106EF00004F0294630BD94F0000F83F4801306BFE0
:106F000081F480110134013D4EE77FEA645C18BFD3
:106F10007FEA655C29D094EA050F08BF90EA020F6A
:106F200005D054EA000C04BF1946104630BD91EA62
:106F3000030F1EBF0021002030BD5FEA545C05D165
:106F40004000494128BF41F0004130BD14F58004A4
:106F50003CBF01F5801130BD01F0004545F0FE4118
:106F600041F470014FF0000030BD7FEA645C1ABF4D
:106F7000194610467FEA655C1CBF0B46024650EA84
:106F8000013406BF52EA033591EA030F41F40021B0
:106F900030BD00BF90F0000F04BF0021704730B536
:106FA0004FF4806404F132044FF000054FF000010B
:106FB00050E700BF90F0000F04BF0021704730B5CC
:106FC0004FF4806404F1320410F0004548BF4042A1
:106FD0004FF000013EE700BF42004FEAE2014FEAF6
:106FE00031014FEA02701FBF12F07F4393F07F4FD1
:106FF00081F06051704792F0000F14BF93F07F4F03
:10700000704730B54FF4607401F0004521F0004145
:1070100020E700BF50EA010208BF704730B54FF0CB
:1070200000050AE050EA010208BF704730B511F0D0
:10703000004502D5404261EB41014FF4806404F108
:1070400032045FEA915C3FF4DCAE4FF003025FEA8A
:10705000DC0C18BF03325FEADC0C18BF033202EB12
:10706000DC02C2F1200300FA03FC20FA02F001FA6C
:1070700003FE40EA0E0021FA02F11444C1E600BF0B
:1070800070B54FF0FF0C4CF4E06C1CEA11541DBFBE
:107090001CEA135594EA0C0F95EA0C0F00F0DEF889
:1070A0002C4481EA030621EA4C5123EA4C5350EA6E
:1070B000013518BF52EA033541F4801143F48013BF
:1070C00038D0A0FB02CE4FF00005E1FB02E506F050
:1070D0000042E0FB03E54FF00006E1FB03569CF0A5
:1070E000000F18BF4EF0010EA4F1FF04B6F5007FAB
:1070F00064F5407404D25FEA4E0E6D4146EB06061D
:1071000042EAC62141EA55514FEAC52040EA5E50A5
:107110004FEACE2EB4F1FD0C88BFBCF5E06F1ED84F
:10712000BEF1004F08BF5FEA500E50F1000041EB86
:10713000045170BD06F0004646EA010140EA020033
:1071400081EA0301B4EB5C04C2BFD4EB0C0541EA55
:10715000045170BD41F480114FF0000E013C00F36A
:10716000AB8014F1360FDEBF002001F0004170BD8E
:10717000C4F10004203C35DA0C341BDC04F11404A7
:10718000C4F1200500FA05F320FA04F001FA05F233
:1071900040EA020001F0004221F0004110EBD37000
:1071A00021FA04F642EB06015EEA430E08BF20EA2C
:1071B000D37070BDC4F10C04C4F1200500FA04F3CF
:1071C00020FA05F001FA04F240EA020001F0004161
:1071D00010EBD37041F100015EEA430E08BF20EAD4
:1071E000D37070BDC4F1200500FA05F24EEA020E1C
:1071F00020FA04F301FA05F243EA020321FA04F04B
:1072000001F0004121FA04F220EA020000EBD37001
:107210005EEA430E08BF20EAD37070BD94F0000F01
:107220000FD101F00046400041EB010111F4801F35
:1072300008BF013CF7D041EA060195F0000F18BFE6
:10724000704703F00046520043EB030313F4801F22
:1072500008BF013DF7D043EA0603704794EA0C0FDC
:107260000CEA135518BF95EA0C0F0CD050EA4106F2
:1072700018BF52EA4306D1D181EA030101F000416F
:107280004FF0000070BD50EA410606BF1046194697
:1072900052EA430619D094EA0C0F02D150EA0136A3
:1072A00013D195EA0C0F05D152EA03361CBF1046E4
:1072B00019460AD181EA030101F0004141F0FE4183
:1072C00041F470014FF0000070BD41F0FE4141F407
:1072D000780170BD70B54FF0FF0C4CF4E06C1CEA07
:1072E00011541DBF1CEA135594EA0C0F95EA0C0FBC
:1072F00000F0A7F8A4EB050481EA030E52EA033577
:107300004FEA013100F088804FEA03334FF0805597
:1073100045EA131343EA12634FEA022245EA1115C4
:1073200045EA10654FEA00260EF000419D4208BF75
:10733000964244F1FD0404F5407402D25B084FEA22
:107340003202B61A65EB03055B084FEA32024FF4CE
:1073500080104FF4002CB6EB020E75EB030E22BF2B
:10736000B61A754640EA0C005B084FEA3202B6EBEB
:10737000020E75EB030E22BFB61A754640EA5C009A
:107380005B084FEA3202B6EB020E75EB030E22BF2A
:10739000B61A754640EA9C005B084FEA3202B6EB2B
:1073A000020E75EB030E22BFB61A754640EADC00EA
:1073B00055EA060E18D04FEA051545EA16754FEA4C
:1073C00006164FEAC30343EA52734FEAC2025FEA6A
:1073D0001C1CC0D111F4801F0BD141EA00014FF0F9
:1073E00000004FF0004CB6E711F4801F04BF0143CA
:1073F0000020B4F1FD0C88BFBCF5E06F3FF6AFAEE6
:10740000B5EB030C04BFB6EB020C5FEA500C50F175
:10741000000041EB045170BD0EF0004E4EEA1131F8
:1074200014EB5C04C2BFD4EB0C0541EA045170BDFF
:1074300041F480114FF0000E013C90E645EA060E43
:107440008DE60CEA135594EA0C0F08BF95EA0C0F71
:107450003FF43BAF94EA0C0F0AD150EA01347FF4B9
:1074600034AF95EA0C0F7FF425AF104619462CE790
:1074700095EA0C0F06D152EA03353FF4FDAE1046F3
:10748000194622E750EA410618BF52EA43067FF444
:10749000C5AE50EA41047FF40DAF52EA43057FF4D4
:1074A000EBAE12E74A0011D212F5001211D20DD53F
:1074B0006FF47873B3EB62520ED44FEAC12343F0FA
:1074C000004343EA505323FA02F070474FF00000A4
:1074D000704750EA013002D14FF0FF3070474FF053
:1074E0000000704710B5054C13462CB10A46014602
:1074F0000220AFF3008010BD204610BD0000000048
:1075000010B5431E0A44914204D011F8014B03F810
:10751000014FF8E710BD02440346934202D003F83E
:10752000011BFAE77047000038B5124B1C68A36BCB
:107530000546D3B91820FEF7B1FA43F20E33A06323
:1075400003804AF6CD33438041F2342383804EF2E8
:107550006D63C3804DF6EC630381052343810B23E8
:10756000838101220023C0E90423A36B00221D6153
:107570005A6138BD58E30320034613F8012B002A53
:10758000FBD1181A0138704721400D005D400D00F5
:1075900089400D008D400D0000000000FFFFFFFF3F
:1075A000FFFFFFFF0D0A2B434349443A20255B5E52
:1075B0000D5D0D0A000D0A2B55414E54523A2025FF
:1075C0005B5E0D5D0D0A000A2F2F205443414E349F
:1075D000783578202F2F0056657273696F6E3A20C8
:1075E000307825303258000A2F2F2050415254490C
:1075F000434C4520434F4E4E454354494F4E205334
:107600005441545553202F2F00436C6F7564204F05
:1076100066666C696E6500436C6F756420436F6EBF
:107620006E6563746564000A2F2F2043454C4C201F
:107630005349474E414C202F2F0043454C4C3A2094
:107640003247205241540043454C4C3A20324720A7
:1076500052415420776974682045444745004345AA
:107660004C4C3A20554D5453205241540043454C04
:107670004C3A204C5445205241540043454C4C3A1E
:1076800020556E6B6E6F776E205241540043454C0F
:107690004C3A205369676E616C205155414C3A2039
:1076A000252E30326625252C205354523A20252E83
:1076B0003032662525005B3078253032582C307802
:1076C000253032582C3078253032582C30782530FF
:1076D00032582C3078253032582C307825303258BA
:1076E0002C3078253032582C3078253032585D00D7
:1076F0000A2F2F2043454C4C204943434944202F17
:107700002F0041542B434349440D0A0053494D2057
:107710004943434944204E4F5420464F554E44213F
:107720000053494D204943434944203D2025730DD2
:107730000A000A2F2F2043454C4C20414E54454E01
:107740004E41202F2F0041542B55414E54523D3075
:107750000D0A0042414420414E54454E4E412052B4
:107760004553504F4E53452100416E74656E6E6116
:10777000203D2025730D0A0073657475702829005B
:107780000A202F2F205443414E20494E5445525237
:1077900055505453202F2F006465765F69723A204C
:1077A0002558006D63616E5F69723A202558000AA2
:1077B0002F2F2043414E205258202F2F0053504945
:1077C00045525220666C616720776173207365743F
:1077D0002C20636C656172696E67005278204D657C
:1077E00073736167652069643A20307825303858B2
:1077F0000057524954455F494F5F303A2025642C69
:10780000202564000A476F696E6720746F205374E7
:107810006279005278204D657373616765206964F1
:107820003A20307825303358002530325820000A6D
:107830002F2F204449474954414C204F555450550F
:107840005453202F2F0050494E5F48535F4F5554DB
:107850005F313A2025640050494E5F48535F4F55D1
:10786000545F323A202564000A2F2F20414E414CAC
:107870004F4720494E505554202F2F0050494E5FFE
:107880005245535F494E3A202564202F2034303929
:10789000350050494E5F564241545F313A202564CD
:1078A000202F20343039350050494E5F5642415424
:1078B0005F323A202564202F20343039350050497A
:1078C0004E5F564241545F333A202564202F2034C6
:1078D0003039350050494E5F414E5F313A202564C2
:1078E000202F20343039350050494E5F414E5F32F1
:1078F0003A202564202F2034303935000A2F2F20DC
:10790000494E5445525255505420434F554E5420E1
:107910002F2F005443414E5F496E745F436E743A9B
:10792000202025640043757272656E74206D6F644B
:10793000653A20256400536C656570696E672C207C
:10794000617474656D7074696E67206D616E7561C8
:107950006C2077616B65757000080C10141820306E
:10796000400C1014182030400000000000000000FF
:107970003B5B0D00315B0D00275B0D001D5B0D00B7
:10798000115B0D00055B0D00F95A0D00F15A0D0059
:10799000E75A0D00DD5A0D00D5670D00000000000C
:1079A00000000000595B0D005B5B0D000008101823
:1079B00020283038626175640053657269616C001B
:1079C00053657269616C3100747970650070617221
:1079D000616D00636D6400696400686E64007374B7
:1079E000726D0066696C74006C766C00616464484A
:1079F000616E646C65720072656D6F766548616E6C
:107A0000646C657200656E756D48616E646C65725C
:107A100073004A534F4E53747265616D4C6F6748E3
:107A2000616E646C65720061707000253031307574
:107A300020005D20002C200028293A2000205B0037
:107A4000636F6465203D2000256900646574616989
:107A50006C73203D200066006C6E00666E00636FE4
:107A600064650064657461696C006E6F6E650074B6
:107A70007261636500696E666F007761726E0065A2
:107A800072726F720070616E696300616C6C005A93
:107A900000252B3033643A253032750025592D25C9
:107AA0006D2D25645425483A254D3A2553257A00F5
:107AB00061736374696D65000000000000000000E0
:107AC000A55E0D00055F0D00A75E0D00495F0D006E
:107AD000AD5E0D00155F0D00D95E0D00D35F0D008A
:107AE000FCFFFFFF00000000FD5F0D000000000034
:107AF0000000000025610D0015610D0017610D00EB
:107B00000000000000000000FD610D004D620D004E
:107B10005B620D00055D0D0039620D00FF610D0017
:107B200015620D0047620D002B620D00F9610D001A
:107B30000000000000000000BB630D00B1630D00F9
:107B4000A7630D005D630D009B630D008F630D0047
:107B500083630D007B630D0071630D0067630D008F
:107B6000D5670D00000000000000000069640D00F2
:107B7000B9640D00C7640D00055D0D007D640D0046
:107B80009F640D008B640D00B3640D006B640D00E9
:107B90006F640D0000000000000000006D650D0026
:107BA000B7650D008F650D006F650D0097650D00C1
:107BB0009F650D00A7650D00AF650D00000000007A
:107BC000000000004F660D0045660D003B660D008D
:107BD00031660D0025660D0019660D000D660D005D
:107BE00005660D00FB650D00F1650D00D5670D0004
:107BF00000000000000000006D670D0077670D00B9
:107C000081670D008B670D0095670D00A1670D0062
:107C1000AD670D00B9670D00C1670D00CB670D00A2
:107C2000D5670D000000000000000000000000000B
:107C30000000000000000000000000000000000044
:107C40000000000000000000000000000000000034
:107C50000000000000000000000000000000000024
:107C60000000000000000000000000000000000014
:107C70000000000000000000000000000000000004
:107C8000000000000000000043000000D14A0D0089
:107C90001D4B0D0021560D00455B0D00995C0D003C
:107CA000DD5C0D00415E0D00515E0D00895E0D0032
:107CB00039640D001D670D00A1680D00816A0D007B
:107CC000056B0D00C96B0D008D6C0D0000000000F0
:047CD00000000000B0
:107CD400B07A0D0000000000287C0D00487C0D00E7
:107CE400687C0D000000000000000000000000009F
:107CF40000000000887C0D0000000000000000006F
:107D0400000000000000000000000000000000006F
:107D1400000000000000000000000000000000005F
:107D2400000000000000000000000000000000004F
:087D340000000000F8E203204A
:107D3C00FFFFFFFF00000102030405060708090A04
:107D4C000B0C0D0E0F101112131415161718191AFF
:087D5C001B1C1D1E1F20280046
:047D64007856341207
:04000003D0004020C9
:00000001FF
